:100000002BC045C044C043C042C041C040C03FC0F7
:100010003EC03DC03CC070C23AC039C038C06DC39C
:10002000B5C200003900360000003A003700000079
:100030003B0038000101010101010101020202023D
:1000400001020408102040800402010800000000A2
:10005000000403020100000011241FBECFE5D2E01E
:10006000DEBFCDBF10E0A0E6B0E0EAE8F4E102C0F8
:1000700005900D92A237B107D9F720E0A2E7B0E0D2
:1000800001C01D92AD3CB207E1F77ED3FCC9B8CFE9
:100090008091CC00882339F02091CB0082131CC0C2
:1000A0008FEF9FEF08959091CA008091C900891B3E
:1000B0008F70B1F39091CA008091C9009817E1F355
:1000C000E091CA00EF5FEF70E093CA00F0E0EE58F5
:1000D000FF4F808190E00895E22FF0E0EE58FF4F4F
:1000E000808190E02F5F2093CB0008959091C8000D
:1000F0009923A1F09091CC00903240F59091CB00E3
:10010000E92FF0E0EE58FF4F808381E0890F809364
:10011000CB008093CC0081E090E008952091C7004F
:100120009091C6002F5F921B9F7081F09091C70045
:100130009F5F9F702091C6009217E1F3E92FF0E0D6
:10014000EE57FF4F80839093C700E5CF90E080E0AB
:1001500008953FB7F8948091C2009091C300A09198
:10016000C400B091C50022B708B600FE05C02F3FFD
:1001700019F00196A11DB11D3FBFBA2FA92F982FCD
:100180008827BC01CD01620F711D811D911D43E0C7
:10019000660F771F881F991F4A95D1F70895CF9250
:1001A000DF92EF92FF92CF93DF936B017C01D1DF5F
:1001B000EB01C114D104E104F10441F412C081E067
:1001C000C81AD108E108F108C851DC4FC2DF6C1B26
:1001D0007D0B683E734068F3C114D104E104F1045F
:1001E00071F7DF91CF91FF90EF90DF90CF9008955E
:1001F0004FDF81110DC04CDF892B39F481E090E095
:100200009093930080939200089582E090E0F8CF5D
:100210003FDF99278230910541F12CF4009751F08E
:100220000197D1F008958430910589F13CF105974B
:1002300079F008952DDF092E000CAA0BBB0B8093DB
:100240009A0090939B00A0939C00B0939D0008950A
:100250001FDF8093610008951BDF21E01816190647
:100260000CF020E020936200089512DF21E01816C0
:1002700019060CF020E020936300089509DF21E0C7
:10028000181619060CF020E020936400089500DF92
:1002900021E0181619060CF020E02093650008955F
:1002A0008091920090919300019711F481E01ECF0C
:1002B00080919200909193000297A1F482E016DF62
:1002C00080916000823049F483E090E09093930045
:1002D0008093920010926000089510929300109203
:1002E0009200F8CF8091920090919300039749F487
:1002F00081E0FCDE84E090E0909393008093920094
:1003000008958091920090919300049769F48091F0
:100310009A0090919B00A0919C00B0919D00E6DE18
:1003200010929300109292000895EEE9F0E080E0C0
:1003300091919111892F90E0E23AF907C9F7089558
:1003400080919E009091A100911101C080E00895DC
:1003500087FD8F7790E0FC01E45BFF4F3491FC0157
:10036000E05CFF4F2491FC01EC5CFF4FE491EE2335
:10037000B9F0332329F03130A1F480B78F7780BFF3
:10038000F0E0EE0FFF1FE25DFF4FA591B4918FB734
:10039000611117C0F894EC9120952E232C938FBFF8
:1003A0000895323019F480B78F7DE9CF333021F4CE
:1003B0008FB58F778FBDE4CF343011F78FB58F7D38
:1003C000F9CFF894EC912E2BE9CF60E083E0C0DF09
:1003D00060E082E0BDDF60E081E0BADF60E080E005
:1003E000B7CFCF93DF9387FD8F7790E0FC01E05C80
:1003F000FF4F24918C5C9F4FFC0184918823C9F0AE
:1004000090E0880F991FFC01E85DFF4FA591B49122
:10041000FC01E25DFF4FC591D49161110DC09FB702
:10042000F8948C91209582238C93888128232883AB
:100430009FBFDF91CF910895623051F49FB7F89438
:100440003C91822F809583238C93E8812E2BEFCFD4
:100450008FB7F894EC912E2B2C938FBFEACFCF93CC
:10046000DF93AAE6B0E0CEE9D0E08D9187FD8F77EB
:1004700090E0FC01E05CFF4F2491FC01EC5CFF4F3D
:10048000E49190E080E0EE2389F0F0E0EE0FFF1FB2
:10049000EE5DFF4F85919491FC018081E82FE2236E
:1004A00031E020E009F430E0832F922FF1E08F2734
:1004B0008170899320E0AE36B207B9F6DF91CF9113
:1004C0000895CF93C0916200809163008111C26052
:1004D000809164008111C460809165008111C860C1
:1004E00088E090E063D7C81729F06C2F88E090E08F
:1004F000CF9164C7CF9108951F920F920FB60F92BC
:1005000011242F933F938F939F93AF93BF93809129
:10051000BE009091BF00A091C000B091C100309189
:10052000BD0026E0230F2D3768F129E8230F03963D
:10053000A11DB11D2093BD008093BE009093BF000C
:10054000A093C000B093C1008091C2009091C300FD
:10055000A091C400B091C5000196A11DB11D80936A
:10056000C2009093C300A093C400B093C500BF9194
:10057000AF919F918F913F912F910F900FBE0F9050
:100580001F9018950296A11DB11DD4CF1F920F92F6
:100590000FB60F9211242F933F934F935F936F9356
:1005A0007F938F939F93AF93BF93CF93EF93FF93DB
:1005B00080919400823009F474C0B8F4882389F1E2
:1005C000813009F454C0FF91EF91CF91BF91AF9169
:1005D0009F918F917F916F915F914F913F912F915B
:1005E0000F900FBE0F901F901895843009F45FC0D4
:1005F000B8F1853041F784E0809394009FB18091F9
:10060000C9008F5F8F702091CA00281709F473C04A
:100610008093C900E091C900F0E0EE58FF4F90834D
:1006200019C08FB1882331F08FB1869590919900D0
:10063000891319C0789B12C0E0919700F09198003F
:10064000309729F08091C7008093C600099581E01A
:10065000809394001FB8D69A8EE721C084E0F8CF2B
:100660008FB1882321F0D69888EA8DB917C0809180
:10067000C6009091C7009817B1F38091C6008F5FB4
:100680008F708093C600E091C600F0E0EE57FF4FF8
:1006900080818FB982E080939400D69A80E78EB9EA
:1006A00092CF83E080939400D6981FB8D5CF85E091
:1006B00080939400D69880E78EB9E0919500F091F0
:1006C0009600309709F47FCFC091C9008091CA008D
:1006D0008C1709F478CF8EB18E7AE9F3759B73CFBE
:1006E0009091CA008091C900891B8F7090E0099594
:1006F000C093CA0068CFD698AFCF1F920F920FB6A3
:100700000F9211242F933F934F935F936F937F9397
:100710008F939F93AF93BF93CF93EF93FF93E0910A
:100720009500F0919600309781F0C091C9008091BA
:10073000CA008C1751F09091CA008091C900891BA2
:100740008F7090E00995C093CA0010929400D698DB
:10075000CC9B18C0CE9BFCCF88EA8DB980EF8EB9B8
:10076000FF91EF91CF91BF91AF919F918F917F9129
:100770006F915F914F913F912F910F900FBE0F900E
:100780001F90189588EFE9CF83E080BF83BF7894EE
:1007900099B7916099BF91E09FBD8EBD86E886B9FB
:1007A00061E083E01EDE61E082E01BDE61E081E06B
:1007B00018DE61E080E015DE60E083E0C9DD60E026
:1007C00082E0C6DD60E081E0C3DD60E080E0C0DDA6
:1007D00062E087E006DE62E088E003DE62E089E056
:1007E00000DE62E08AE0FDDD60E085E0FADD90E0B9
:1007F00080E0DCD590E0B0E0A0E080939A00909398
:100800009B00A0939C00B0939D0080919A009091D2
:100810009B00A0919C00B0919D004997A105B10556
:1008200060F010929A0010929B0010929C0010921F
:100830009D0060E090E080E0C1D588E090E0B6D512
:10084000282F81708093620021FB882780F9809394
:10085000630022FB882780F98093640023FB222712
:1008600020F9209365001092CB001092CC001092DA
:10087000C8001092CA001092C9001092C6001092CF
:10088000C70083E28093990010929800109297001D
:100890001092960010929500DC9ADE9AD49AD6981F
:1008A00088EA8DB980EF8EB961E083E051DD68ECB4
:1008B00070E080E090E073DC61E080E049DD68ECAE
:1008C00070E080E090E06BDC61E082E041DD68ECAC
:1008D00070E080E090E063DC61E081E039DD68ECAD
:1008E00070E080E090E05BDC60E083E031DD68ECAC
:1008F00070E080E090E053DC60E080E029DD68ECAF
:1009000070E080E090E04BDC60E082E021DD68ECAC
:1009100070E080E090E043DC60E081E019DD8091F0
:100920006500882309F47DC01092BC001092BB00C2
:1009300044E0842E912CA12CB12C52E0252E312C98
:1009400063E0462E512CC091BB00D091BC0087DDE6
:10095000209709F097C10EE910E077247394D8012D
:100960008D918D01811101C0712CB0E0023A1B07FD
:10097000B1F7772009F413C18FB7F894C090BE0087
:10098000D090BF00E090C000F090C1008FBF67DD45
:10099000EEE9F0E0972D8191882309F460C40E17E9
:1009A0001F0709F045C0911146C01092BC0010927B
:1009B000BB0068EC70E080E090E0F1DB8091BB0070
:1009C0009091BC00892B09F0BECFCD2B09F4BBCF91
:1009D000FCDC61E083E0BCDC61E080E0B9DC68EC79
:1009E00070E080E090E0DBDB61E081E0B1DC61E0C1
:1009F00082E0AEDC68EC70E080E090E0D0DB60E0AC
:100A000083E0A6DC60E080E0A3DC68EC70E080E0DE
:100A100090E0C5DB60E081E09BDC60E082E098DC98
:100A200092CF83E090E09093BC008093BB0080CF96
:100A3000892F982FB0CF2FB7F8948091BE00909156
:100A4000BF00A091C000B091C1002FBF8C199D09BB
:100A5000AE09BF0980319742A105B10508F497CFCF
:100A6000B4DC61E083E074DC61E080E071DC61E0D3
:100A700081E06EDC61E082E06BDC64E670E080E0E7
:100A800090E08DDB60E083E063DC60E080E060DCD0
:100A900060E081E05DDC60E082E05ADC64E670E00A
:100AA00080E090E07CDB61E083E052DC61E080E0AC
:100AB0004FDC61E081E04CDC61E082E049DC64E62F
:100AC00070E080E090E06BDB60E083E041DC60E0C0
:100AD00080E03EDC60E081E03BDC60E082E038DC2E
:100AE00064E670E080E090E05ADB61E083E030DCB7
:100AF00061E080E02DDC61E081E02ADC61E082E001
:100B000027DC64E670E080E090E049DB60E083E0B1
:100B10001FDC60E080E01CDC60E081E019DC60E06C
:100B200082E016DC64E670E080E090E038DB61E0B3
:100B300083E00EDC61E080E00BDC61E081E008DC5A
:100B400061E082E005DC6CEB72E080E090E027DBA6
:100B500060E083E0FDDB60E080E0FADB60E081E004
:100B6000F7DB60E082E0F4DB81E080936200809359
:100B70006300809364008093650010929A00109245
:100B80009B0010929C0010929D009BDC60E090E026
:100B900080E014D41092BC001092BB002FC0D0DBB8
:100BA000811110C08091A000882321F080919F00C6
:100BB00081110FC0BADB882389F03092BC002092EB
:100BC000BB00F7CE81E090E09093BC008093BB0027
:100BD000F0CE5092BC004092BB00EBCE8091620000
:100BE000811112C060E083E0B3DB60E082E0B0DB43
:100BF00060E081E0ADDB60E080E0AADB68EC70E003
:100C000080E090E0CCDAD5CEC0909A00D0909B00E6
:100C1000E0909C00F0909D0080919A0090919B0044
:100C2000A0919C00B0919D004097A105B10520F0D6
:100C3000C12CD12C7601CA942EE6622E20E0722EB1
:100C400010E000E0D3018D913D0121E030E0002E65
:100C500002C0220F331F0A94E2F7032E000C440B4C
:100C6000550B2C213D214E215F2161E0232B242BAC
:100C7000252B09F460E06CDB0F5F1F4F043011057A
:100C800009F7BCCFC130D10509F070C09EDB61E02F
:100C900083E05EDB68EC70E080E090E080DA61E0A9
:100CA00082E056DB68EC70E080E090E078DA61E0AA
:100CB00081E04EDB68EC70E080E090E070DA61E0AB
:100CC00080E046DB68EC70E080E090E068DA60E0AD
:100CD00083E03EDB68EC70E080E090E060DA60E0AA
:100CE00082E036DB68EC70E080E090E058DA60E0AB
:100CF00081E02EDB68EC70E080E090E050DA60E0AC
:100D000080E026DB7724739402E610E09EE6C92E8D
:100D100090E0D92E7801F70191917F01D6018D9154
:100D20006D0161E0911101C060E012DBB6E6EB16E7
:100D3000B0E0FB0681F793DB03DB811115C0EEE920
:100D4000F0E08191882321F0D8018C9187258C9344
:100D50000F5F1F4FB0E0E23AFB0799F768EC70E0D5
:100D600080E090E01CDAD0CFACDB14CFC330D105EB
:100D700009F034C12ADBC3D2A501940146D3162F52
:100D80006EDBDEDA882351F01092BC001092BB00BB
:100D9000CCDA882309F40DCE62DBFACF113009F4E6
:100DA00060C060F0123009F474C0133009F4C4C09C
:100DB00068EC70E080E090E0F2D9DDCF12E061E015
:100DC00083E0C6DA68EC70E080E090E0E8D960E0AB
:100DD00083E0BEDA61E082E0BBDA68EC70E080E0DC
:100DE00090E0DDD960E082E0B3DA61E081E0B0DA82
:100DF00068EC70E080E090E0D2D960E081E0A8DAB1
:100E000061E080E0A5DA68EC70E080E090E0C7D9AE
:100E100060E080E09DDA61E081E09ADA68EC70E001
:100E200080E090E0BCD960E081E092DA61E082E0AD
:100E30008FDA68EC70E080E090E0B1D960E082E0A9
:100E400087DA61E083E084DA68EC70E080E090E0CB
:100E5000A6D960E083E07CDA113009F4A9CF11E073
:100E6000AECF1AE04CD2A5019401CFD2E62FF0E02C
:100E7000E259FF4F008161E0802F6ADA68EC70E090
:100E800080E090E08CD960E0802F62DA115051F759
:100E90008FCF13E061E083E05BDA61E080E058DA55
:100EA00068EC70E080E090E07AD960E083E050DAAE
:100EB00060E080E04DDA68EC70E080E090E06FD9AF
:100EC00061E083E045DA61E080E042DA68EC70E0FE
:100ED00080E090E064D960E083E03ADA60E080E0AE
:100EE00037DA61E082E034DA61E081E031DA68EC3F
:100EF00070E080E090E053D960E082E029DA60E0C1
:100F000081E026DA68EC70E080E090E048D961E0AA
:100F100082E01EDA61E081E01BDA68EC70E080E0DC
:100F200090E03DD960E082E013DA60E081E010DA21
:100F3000115009F0AFCF3CCF61E083E009DA61E006
:100F400081E006DA68EC70E080E090E028D960E0AB
:100F500083E0FED960E081E0FBD968EC70E080E0DE
:100F600090E01DD961E083E0F3D961E081E0F0D940
:100F700068EC70E080E090E012D960E083E0E8D9AE
:100F800060E081E0E5D961E082E0E2D961E080E003
:100F9000DFD968EC70E080E090E001D960E082E0A9
:100FA000D7D960E080E0D4D968EC70E080E090E0D0
:100FB000F6D861E082E0CCD961E080E0C9D968EC84
:100FC00070E080E090E0EBD860E082E0C1D960E0C2
:100FD00080E0BED9115009F0AFCFEACEC230D105C2
:100FE00009F0E7CCE3EAF0E088E1DF011D928A95A1
:100FF000E9F71092A200ADD86115710519F08827A4
:101000009927CBD1E2D980916400811111C0F12CD4
:101010008091A2008F15B8F072D10F2D10E00D5500
:101020001F4FA5019401F1D1F8016083F394F0CF33
:1010300066D10091A20010E00D551F4FA50194014B
:10104000E4D1D8016C9380916300882339F184EF57
:1010500091E0712C6C01990FEE08FF088091A200BD
:101060007816F8F4072D10E00D551F4FD801EC91BC
:10107000F0E0E259FF4F61E080816AD9C701B60113
:101080008ED8D801EC91F0E0E259FF4F60E080810A
:101090005FD9C701B60183D87394E0CF84E690E0AE
:1010A000D8CF712C8091A200781608F0CFC08FB7EE
:1010B000F894C090BE00D090BF00E090C000F090C7
:1010C000C1008FBFCCD93CD9682E81116ECC2FB70F
:1010D000F8948091BE009091BF00A091C000B091A3
:1010E000C1002FBF8C199D09AE09BF0981369A4EE8
:1010F000A105B10508F059CC18D9882309F499C085
:101100008EE9C82E80E0D82E760101E010E0D701EC
:101110008D917D01882331F061E0F801E359FF4FA3
:10112000808116D90F5F1F4F0530110581F768ECDC
:1011300070E080E090E033D848D9E72DF0E0ED553D
:10114000FF4F308120E080E0F60191916F0138136C
:1011500069C091116CC08F5F8430B1F7213011F0FC
:1011600061106DC08091A20090E0B0E0A0E04091DD
:101170009A0050919B0060919C0070919D004817CF
:1011800059076A077B0740F480939A0090939B006D
:10119000A0939C00B0939D0090E080E007D1409127
:1011A0009A0050919B0060919C0070919D0090E08E
:1011B000B0E0A0E084179507A607B70758F4609140
:1011C0009A0070919B0080919C0090919D0090E00E
:1011D00080E0F4D012E061E083E0BAD861E082E020
:1011E000B7D861E081E0B4D861E080E0B1D864EFC5
:1011F00071E080E090E0D3D760E083E0A9D860E0C0
:1012000082E0A6D860E081E0A3D860E080E0A0D8CA
:1012100064EF71E080E090E0C2D7113009F4C5CBF3
:1012200011E0D9CF992309F496CF292F94CF692EB5
:1012300092CF68EC70E080E090E0B1D743CF75D8F2
:10124000882311F00CD9FBCF73942CCF8F5F809340
:10125000A20068EE73E080E090E0A1D7D4CE0E1734
:101260001F0709F0E6CBA1CB8F929F92AF92BF925E
:10127000CF92DF92EF92FF92CF93DF93EC016881E0
:1012800079818A819B81611571058105910521F420
:1012900064E279ED8BE597E02DE133EF41E050E03A
:1012A000B4D049015A0127EA31E440E050E094D03B
:1012B0006B017C012CEE34EF4FEF5FEFC501B40101
:1012C0008BD0C60ED71EE81EF91EF7FE06C081E0C1
:1012D000C81AD108E10880E8F80AC882D982EA82EF
:1012E000FB82C701B6019F77DF91CF91FF90EF900E
:1012F000DF90CF90BF90AF909F908F9008958F9286
:101300009F92AF92BF92CF92DF92EF92FF92609145
:101310006600709167008091680090916900611586
:1013200071058105910521F464E279ED8BE597E083
:101330002DE133EF41E050E068D049015A0127EA3E
:1013400031E440E050E048D06B017C012CEE34EFFA
:101350004FEF5FEFC501B4013FD0C60ED71EE81EA8
:10136000F91EF7FE06C081E0C81AD108E10880E83E
:10137000F80AC0926600D0926700E0926800F0928E
:101380006900C701B6019F77FF90EF90DF90CF9083
:10139000BF90AF909F908F90089560936600709378
:1013A000670080936800909369000895E199FECFEB
:1013B0009FBB8EBBE09A99278DB30895262FE199A4
:1013C000FECF1CBA9FBB8EBB2DBB0FB6F894E29A22
:1013D000E19A0FBE01960895EE27FF27AA27BB27A3
:1013E00008C0A20FB31FE41FF51F220F331F441FB5
:1013F000551F969587957795679598F37040A9F74F
:10140000009799F7BD01CF010895052E97FB16F4BB
:1014100000940FD057FD05D014D007FC02D046F43D
:1014200008C050954095309521953F4F4F4F5F4FE5
:10143000089590958095709561957F4F8F4F9F4F40
:101440000895A1E21A2EAA1BBB1BFD010DC0AA1F05
:10145000BB1FEE1FFF1FA217B307E407F50720F01D
:10146000A21BB30BE40BF50B661F771F881F991F98
:101470001A9469F760957095809590959B01AC01E1
:0A148000BD01CF010895F894FFCFDD
:10148A00026401010101010000000708090A0302C0
:02149A0001004F
:00000001FF
